17:29:36.804059 IP (tos 0x0, ttl 64, id 5583, offset 0, flags [DF], proto TCP (6), length 60)
    74.125.225.23.33902 > 68.180.206.184.80: Flags [S], cksum 0xf026 (correct), seq 1283898046, win 14600, options [mss 1460,sackOK,TS val 4294946673 ecr 0,nop,wscale 7], length 0
	0x0000:  000c 293e 369e 000c 29c8 e96e 0800 4500  ..)>6...)..n..E.
	0x0010:  003c 15cf 4000 4006 0feb 4a7d e117 44b4  .<..@.@...J}..D.
	0x0020:  ce50 846e 0050 4c86 babe 0000 0000 a002  .P.n.PL.........
	0x0030:  3908 f026 0000 0204 05b4 0402 080a ffff  9..&............
	0x0040:  af71 0000 0000 0103 0307                 .q........
