17:29:36.804059 IP (tos 0x0, ttl 64, id 5583, offset 0, flags [DF], proto TCP (6), length 60)
    46.129.99.5.33902 > 10.97.0.2.80: Flags [S], cksum 0x2a95 (correct), seq 1283898046, win 14600, options [mss 1460,sackOK,TS val 4294946673 ecr 0,nop,wscale 7], length 0
	0x0000:  000c 293e 369e 000c 29c8 e96e 0800 4500  ..)>6...)..n..E.
	0x0010:  003c 15cf 4000 4006 0feb 2e81 6305 0a61  .<..@.@....a...a
	0x0020:  0002 846e 0050 4c86 babe 0000 0000 a002  ...n.PL.........
	0x0030:  3908 2a95 0000 0204 05b4 0402 080a ffff  9.*.............
	0x0040:  af71 0000 0000 0103 0307                 .q........
17:29:36.806254 IP (tos 0x0, ttl 128, id 15, offset 0, flags [DF], proto TCP (6), length 64)
    10.97.0.2.80 > 46.129.99.5.33902: Flags [S.], cksum 0x9ab8 (correct), seq 2552877606, ack 1283898047, win 17520, options [mss 1460,nop,wscale 0,nop,nop,TS val 0 ecr 0,nop,nop,sackOK], length 0
	0x0000:  000c 29c8 e96e 000c 293e 369e 0800 4500  ..)..n..)>6...E.
	0x0010:  0040 000f 4000 8006 e5a6 0a61 0002 2e81  .@..@......a...a
	0x0020:  6305 0050 846e 9829 d226 4c86 babf b012  ...P.n.).&L.....
	0x0030:  4470 9ab8 b785 0204 05b4 0103 0300 0101  Dp..............
	0x0040:  080a 0000 0000 0000 0000 0101 0402       ..............
17:29:36.806317 IP (tos 0x0, ttl 64, id 5584, offset 0, flags [DF], proto TCP (6), length 52)
    46.129.99.5.33902 > 10.97.0.2.80: Flags [.], cksum 0x2794 (correct), seq 1, ack 1, win 115, options [nop,nop,TS val 4294946674 ecr 0], length 0
	0x0000:  000c 293e 369e 000c 29c8 e96e 0800 4500  ..)>6...)..n..E.
	0x0010:  0034 15d0 4000 4006 0ff2 2e81 6305 0a61  .4..@.@....a...a
	0x0020:  0002 846e 0050 4c86 babf 9829 d227 8010  ...n.PL....).'..
	0x0030:  0073 2794 0000 0101 080a ffff af72 0000  .s'..........r..
	0x0040:  0000                                     ..
