17:41:16.265613 ARP, Ethernet (len 6), IPv4 (len 4), Request who-has 10.97.0.200 tell 10.97.0.1, length 28
	0x0000:  ffff ffff ffff 000c 29c8 e96e 0806 0001  ........)..n....
	0x0010:  0800 0604 0001 000c 29c8 e96e 0a61 0001  ........)..n.a..
	0x0020:  0000 0000 0000 0a61 00c8                 .......a..
17:41:16.265738 ARP, Ethernet (len 6), IPv4 (len 4), Reply 10.97.0.200 is-at 00:50:56:e7:45:3e, length 46
	0x0000:  000c 29c8 e96e 0050 56e7 453e 0806 0001  ..)..n.PV.E>....
	0x0010:  0800 0604 0002 0050 56e7 453e 0a61 00c8  .......PV.E>.a..
	0x0020:  000c 29c8 e96e 0a61 0001 0000 0000 0000  ..)..n.a........
	0x0030:  0000 0000 0000 0000 0000 0000            ............
17:41:16.265746 IP (tos 0x0, ttl 64, id 32328, offset 0, flags [none], proto UDP (17), length 55)
    10.97.0.1.53179 > 10.97.0.200.53: [udp sum ok] 40414+ A? google.ca. (27)
	0x0000:  0050 56e7 453e 000c 29c8 e96e 0800 4500  .PV.E>..)..n..E.
	0x0010:  0037 7e48 0000 4011 9e7e 0a61 0001 0a61  .7~H..@..~.a...a
	0x0020:  00c8 cfbb 0035 0023 d5a6 9dde 0100 0001  .....5.#........
	0x0030:  0000 0000 0000 0667 6f6f 676c 6502 6361  .......google.ca
	0x0040:  0000 0100 01 
17:41:16.267735 IP (tos 0x0, ttl 128, id 34975, offset 0, flags [none], proto UDP (17), length 103)
    10.97.0.200.53 > 10.97.0.1.53179: [udp sum ok] 40414 q: A? google.ca. 3/0/0 google.ca. [5s] A 74.125.225.23, google.ca. [5s] A 74.125.225.24, google.ca. [5s] A 74.125.225.31 (75)
	0x0000:  000c 29c8 e96e 0050 56e7 453e 0800 4500  ..)..n.PV.E>..E.
	0x0010:  0067 889f 0000 8011 53f7 0a61 00c8 0a61  .g......S..a...a
	0x0020:  0001 0035 cfbb 0053 4300 9dde 8180 0001  ...5...SC.......
	0x0030:  0003 0000 0000 0667 6f6f 676c 6502 6361  .......google.ca
	0x0040:  0000 0100 01c0 0c00 0100 0100 0000 0500  ................
	0x0050:  044a 7de1 17c0 0c00 0100 0100 0000 0500  .J}.............
	0x0060:  044a 7de1 18c0 0c00 0100 0100 0000 0500  .J}.............
	0x0070:  044a 7de1 1f                             .J}..
17:41:20.518184 IP (tos 0x0, ttl 64, id 32329, offset 0, flags [none], proto UDP (17), length 59)
    10.97.0.1.33864 > 10.97.0.200.53: [bad udp cksum 0x5e28 -> 0x8f49!] 41305+ A? microsoft.com. (31)
	0x0000:  0050 56e7 453e 000c 29c8 e96e 0800 4500  .PV.E>..)..n..E.
	0x0010:  003b 7e49 0000 4011 9e79 0a61 0001 0a61  .;~I..@..y.a...a
	0x0020:  00c8 8448 0035 0027 5e28 a159 0100 0001  ...H.5.'.I.Y....
	0x0030:  0000 0000 0000 096d 6963 726f 736f 6674  .......microsoft
	0x0040:  0363 6f6d 0000 0100 01                   .com.....
17:41:20.548693 IP (tos 0x0, ttl 128, id 34976, offset 0, flags [none], proto UDP (17), length 91)
    10.97.0.200.53 > 10.97.0.1.33864: [udp sum ok] 41305 q: A? microsoft.com. 2/0/0 microsoft.com. [5s] A 64.4.11.37, microsoft.com. [5s] A 65.55.58.201 (63)
	0x0000:  000c 29c8 e96e 0050 56e7 453e 0800 4500  ..)..n.PV.E>..E.
	0x0010:  005b 88a0 0000 8011 5402 0a61 00c8 0a61  .[......T..a...a
	0x0020:  0001 0035 8448 0047 b53f a159 8180 0001  ...5.H.G.?.Y....
	0x0030:  0002 0000 0000 096d 6963 726f 736f 6674  .......microsoft
	0x0040:  0363 6f6d 0000 0100 01c0 0c00 0100 0100  .com............
	0x0050:  0000 0500 0440 040b 25c0 0c00 0100 0100  .....@..%.......
	0x0060:  0000 0500 0441 373a c9                   .....A7:.
17:41:25.412619 IP (tos 0x0, ttl 64, id 32330, offset 0, flags [none], proto UDP (17), length 56)
    10.97.0.1.59807 > 10.97.0.200.53: [bad udp cksum 0x5e25 -> 0xabb1!] 14598+ A? tomo7e.com. (28)
	0x0000:  0050 56e7 453e 000c 29c8 e96e 0800 4500  .PV.E>..)..n..E.
	0x0010:  0038 7e4a 0000 4011 9e7b 0a61 0001 0a61  .8~J..@..{.a...a
	0x0020:  00c8 e99f 0035 0024 5e25 3906 0100 0001  .....5.$^%9.....
	0x0030:  0000 0000 0000 0674 6f6d 6f37 6503 636f  .......tomo7e.co
	0x0040:  6d00 0001 0001                           m.....
17:41:25.443850 IP (tos 0x0, ttl 128, id 34977, offset 0, flags [none], proto UDP (17), length 72)
    10.97.0.200.53 > 10.97.0.1.59807: [udp sum ok] 14598 q: A? tomo7e.com. 1/0/0 tomo7e.com. [5s] A 23.88.2.214 (44)
	0x0000:  000c 29c8 e96e 0050 56e7 453e 0800 4500  ..)..n.PV.E>..E.
	0x0010:  0048 88a1 0000 8011 5414 0a61 00c8 0a61  .H......T..a...a
	0x0020:  0001 0035 e99f 0034 50ca 3906 8180 0001  ...5...4P.9.....
	0x0030:  0001 0000 0000 0674 6f6d 6f37 6503 636f  .......tomo7e.co
	0x0040:  6d00 0001 0001 c00c 0001 0001 0000 0005  m...............
	0x0050:  0004 1758 02d6                           ...X..
17:41:36.228156 IP (tos 0x0, ttl 64, id 32331, offset 0, flags [none], proto UDP (17), length 55)
    10.97.0.1.44529 > 10.97.0.200.53: [bad udp cksum 0x5e24 -> 0x51e8!] 40428+ A? yahoo.com. (27)
	0x0000:  0050 56e7 453e 000c 29c8 e96e 0800 4500  .PV.E>..)..n..E.
	0x0010:  0037 7e4b 0000 4011 9e7b 0a61 0001 0a61  .7~K..@..{.a...a
	0x0020:  00c8 adf1 0035 0023 5e24 9dec 0100 0001  .....5.#^$......
	0x0030:  0000 0000 0000 0579 6168 6f6f 0363 6f6d  .......yahoo.com
	0x0040:  0000 0100 01                             .....
17:41:36.259387 IP (tos 0x0, ttl 128, id 34978, offset 0, flags [none], proto UDP (17), length 103)
    10.97.0.200.53 > 10.97.0.1.44529: [udp sum ok] 40428 q: A? yahoo.com. 3/0/0 yahoo.com. [5s] A 206.190.36.45, yahoo.com. [5s] A 98.139.183.24, yahoo.com. [5s] A 98.138.253.109 (75)
	0x0000:  000c 29c8 e96e 0050 56e7 453e 0800 4500  ..)..n.PV.E>..E.
	0x0010:  0067 88a2 0000 8011 53f4 0a61 00c8 0a61  .g......S..a...a
	0x0020:  0001 0035 adf1 0053 0158 9dec 8180 0001  ...5...S.X......
	0x0030:  0003 0000 0000 0579 6168 6f6f 0363 6f6d  .......yahoo.com
	0x0040:  0000 0100 01c0 0c00 0100 0100 0000 0500  ................
	0x0050:  04ce be24 2dc0 0c00 0100 0100 0000 0500  ...$-...........
	0x0060:  0462 8bb7 18c0 0c00 0100 0100 0000 0500  .b..............
	0x0070:  0462 8afd 6d                             .b..m
