17:55:38.724090 ARP, Ethernet (len 6), IPv4 (len 4), Request who-has 10.97.0.2 (ff:ff:ff:ff:ff:ff) tell 10.97.0.1, length 28
	0x0000:  ffff ffff ffff 000c 29c8 e96e 0806 0001  ........)..n....
	0x0010:  0800 0604 0001 000c 29c8 e96e 0a61 0001  ........)..n.a..
	0x0020:  ffff ffff ffff 0a61 0002                 .......a..
17:55:38.724263 ARP, Ethernet (len 6), IPv4 (len 4), Reply 10.97.0.2 is-at 00:0c:29:3e:36:9e, length 46
	0x0000:  000c 29c8 e96e 000c 293e 369e 0806 0001  ..)..n..)>6.....
	0x0010:  0800 0604 0002 000c 293e 369e 0a61 0002  ........)>6..a..
	0x0020:  000c 29c8 e96e 0a80 0001 eb64 575a 5014  ..)..n.....dWZP.
	0x0030:  0000 b017 0000 0204 05b4 0103            ............
17:55:38.724634 IP (tos 0x0, ttl 64, id 58076, offset 0, flags [DF], proto UDP (17), length 69)
    10.97.0.1.58119 > 10.97.0.1.53: [udp sum ok] 40516+ PTR? 2.0.128.10.in-addr.arpa. (41)
	0x0000:  0050 56c0 0002 000c 29c8 e96e 0800 4500  .PV.....)..n..E.
	0x0010:  0045 e2dc 4000 4011 434a 0a61 0001 0a61  .E..@.@.CJ.a...a
	0x0020:  0001 e307 0035 0031 bf36 9e44 0100 0001  .....5.1.6.D....
	0x0030:  0000 0000 0000 0132 0130 0331 3238 0231  .......2.0.128.1
	0x0040:  3007 696e 2d61 6464 7204 6172 7061 0000  0.in-addr.arpa..
	0x0050:  0c00 01                                   ...
17:55:42.725014 IP (tos 0x0, ttl 64, id 58077, offset 0, flags [DF], proto UDP (17), length 69)
    10.97.0.1.58119 > 10.97.0.1.53: [upd sum ok] 40516+ PTR? 2.0.128.10.in-addr.arpa. (41)
	0x0000:  0050 56c0 0002 000c 29c8 e96e 0800 4500  .PV.....)..n..E.
	0x0010:  0045 e2dd 4000 4011 4349 0a61 0001 0a61  .E..@.@.CI.a...a
	0x0020:  0001 e307 0035 0031 bf36 9e44 0100 0001  .....5.1.6.D....
	0x0030:  0000 0000 0000 0132 0130 0331 3238 0231  .......2.0.128.1
	0x0040:  3007 696e 2d61 6464 7204 6172 7061 0000  0.in-addr.arpa..
	0x0050:  0c00 01                                ...
17:55:46.725154 IP (tos 0x0, ttl 64, id 58078, offset 0, flags [DF], proto UDP (17), length 69)
    10.97.0.1.58119 > 10.97.0.1.53: [udp sum ok] 40516+ PTR? 2.0.128.10.in-addr.arpa. (41)
	0x0000:  0050 56c0 0002 000c 29c8 e96e 0800 4500  .PV.....)..n..E.
	0x0010:  0045 e2de 4000 4011 4348 0a61 0001 0a61  .E..@.@.CH.a...a
	0x0020:  0001 e307 0035 0031 b236 9e44 0100 0001  .....5.1.6.D....
	0x0030:  0000 0000 0000 0132 0130 0331 3238 0231  .......2.0.128.1
	0x0040:  3007 696e 2d61 6464 7204 6172 7061 0000  0.in-addr.arpa..
	0x0050:  0c00 01                                  ...
17:55:51.727836 IP (tos 0x0, ttl 54, id 21210, offset 0, flags [none], proto TCP (6), length 44)
    10.97.0.1.57473 > 127.128.0.2.554: Flags [S], cksum 0x9db7 (correct), seq 3503014150, win 3072, options [mss 1460], length 0
	0x0000:  000c 293e 369e 000c 29c8 e96e 0800 4500  ..)>6...)..n..E.
	0x0010:  002c 52da 0000 3606 1cf0 0a61 0001 7f80  .,R...6....a....
	0x0020:  0002 e081 022a d0cb c106 0000 0000 6002  .....*........`.
	0x0030:  0c00 9db7 0000 0204 05b4                 ..........
17:55:51.727893 IP (tos 0x0, ttl 59, id 16444, offset 0, flags [none], proto TCP (6), length 44)
    10.97.0.1.57473 > 101.12.0.2.993: Flags [S], cksum 0xcce8 (correct), seq 3503014150, win 4096, options [mss 1460], length 0
	0x0000:  000c 293e 369e 000c 29c8 e96e 0800 4500  ..)>6...)..n..E.
	0x0010:  002c 403c 0000 3b06 2a8e 0a61 0001 650c  .,@<..;.*..a..e.
	0x0020:  0002 e081 03e1 d0cb c106 0000 0000 6002  ..............`.
	0x0030:  1000 cce8 0000 0204 05b4                 ..........
17:55:51.727920 IP (tos 0x0, ttl 55, id 21986, offset 0, flags [none], proto TCP (6), length 44)
    10.97.0.1.57473 > 22.87.0.2.22: Flags [S], cksum 0x6e1e (correct), seq 3503014150, win 4096, options [mss 1460], length 0
	0x0000:  000c 293e 369e 000c 29c8 e96e 0800 4500  ..)>6...)..n..E.
	0x0010:  002c 55e2 0000 3706 18e8 0a61 0001 1657  .,U...7....a...W
	0x0020:  0002 e081 0016 d0cb c106 0000 0000 6002  ..............`.
	0x0030:  1000 6e1e 0000 0204 05b4                 ..n.......
17:55:51.727944 IP (tos 0x0, ttl 52, id 17102, offset 0, flags [none], proto TCP (6), length 44)
    10.97.0.1.57473 > 5.88.2.2.21: Flags [S], cksum 0x981d (correct), seq 3503014150, win 1024, options [mss 1460], length 0
	0x0000:  000c 293e 369e 000c 29c8 e96e 0800 4500  ..)>6...)..n..E.
	0x0010:  002c 42ce 0000 3406 2efc 0a61 0001 0558  .,B...4....a...X
	0x0020:  0202 e081 0015 d0cb c106 0000 0000 6002  ..............`.
	0x0030:  0400 981d 0000 0204 05b4                 ..........
17:55:51.727968 IP (tos 0x0, ttl 42, id 20788, offset 0, flags [none], proto TCP (6), length 44)
    10.97.0.1.57473 > 11.33.25.90.1723: Flags [S], cksum 0x4f35 (correct), seq 3503014150, win 3072, options [mss 1460], length 0
	0x0000:  000c 293e 369e 000c 29c8 e96e 0800 4500  ..)>6...)..n..E.
	0x0010:  002c 5134 0000 2a06 2a96 0a61 0001 0b21  .,Q4..*.*..a...!
	0x0020:  195a e081 06bb d0cb c106 0000 0000 6002  .Z............`.
	0x0030:  0c00 4f35 0000 0204 05b4                 ..O5......
17:55:51.727993 IP (tos 0x0, ttl 57, id 60647, offset 0, flags [none], proto TCP (6), length 44)
    10.97.0.1.57473 > 96.54.157.80.135: Flags [S], cksum 0xa751 (correct), seq 3503014150, win 2048, options [mss 1460], length 0
	0x0000:  000c 293e 369e 000c 29c8 e96e 0800 4500  ..)>6...)..n..E.
	0x0010:  002c ece7 0000 3906 7fe2 0a61 0001 6036  .,....9....a..`6
	0x0020:  9d50 e081 0087 d0cb c106 0000 0000 6002  .P............`.
	0x0030:  0800 a751 0000 0204 05b4                 ...Q......
17:55:51.728030 IP (tos 0x0, ttl 128, id 3032, offset 0, flags [none], proto TCP (6), length 40)
    10.97.0.2.554 > 10.97.0.1.57473: Flags [R.], cksum 0xab9f (correct), seq 0, ack 3503014151, win 0, length 0
	0x0000:  000c 29c8 e96e 000c 293e 369e 0800 4500  ..)..n..)>6...E.
	0x0010:  0028 0bd8 0000 8006 19f6 0a61 0002 0a61  .(.........a...a
	0x0020:  0001 022a e081 0000 0000 d0cb c107 5014  ...*..........P.
	0x0030:  0000 ab9f 0000                           ......
17:55:51.728037 IP (tos 0x0, ttl 128, id 3033, offset 0, flags [none], proto TCP (6), length 40)
    10.97.0.2.993 > 10.97.0.1.57473: Flags [R.], cksum 0xa9e8 (correct), seq 0, ack 3503014151, win 0, length 0
	0x0000:  000c 29c8 e96e 000c 293e 369e 0800 4500  ..)..n..)>6...E.
	0x0010:  0028 0bd9 0000 8006 19f5 0a61 0002 0a61  .(.........a...a
	0x0020:  0001 03e1 e081 0000 0000 d0cb c107 5014  ..............P.
	0x0030:  0000 a9e8 0000                           ......
17:55:51.728047 IP (tos 0x0, ttl 52, id 15341, offset 0, flags [none], proto TCP (6), length 44)
    10.97.0.1.57473 > 213.114.64.8.1025: Flags [S], cksum 0x77ef (correct), seq 3503014150, win 1024, options [mss 1460], length 0
	0x0000:  000c 293e 369e 000c 29c8 e96e 0800 4500  ..)>6...)..n..E.
	0x0010:  002c 3bed 0000 3406 35dd 0a61 0001 d572  .,;...4.5..a...r
	0x0020:  4008 e081 0401 d0cb c106 0000 0000 6002  @.............`.
	0x0030:  0400 77ef 0000 0204 05b4                 ..w.......
17:55:51.728086 IP (tos 0x0, ttl 128, id 3034, offset 0, flags [none], proto TCP (6), length 40)
    10.97.0.2.22 > 10.97.0.1.57473: Flags [R.], cksum 0xadb3 (correct), seq 0, ack 3503014151, win 0, length 0
	0x0000:  000c 29c8 e96e 000c 293e 369e 0800 4500  ..)..n..)>6...E.
	0x0010:  0028 0bda 0000 8006 19f4 0a61 0002 0a61  .(.........a...a
	0x0020:  0001 0016 e081 0000 0000 d0cb c107 5014  ..............P.
	0x0030:  0000 adb3 0000                           ......
17:55:51.728089 IP (tos 0x0, ttl 128, id 3035, offset 0, flags [none], proto TCP (6), length 40)
    10.97.0.2.21 > 10.97.0.1.57473: Flags [R.], cksum 0xadb4 (correct), seq 0, ack 3503014151, win 0, length 0
	0x0000:  000c 29c8 e96e 000c 293e 369e 0800 4500  ..)..n..)>6...E.
	0x0010:  0028 0bdb 0000 8006 19f3 0a61 0002 0a61  .(.........a...a
	0x0020:  0001 0015 e081 0000 0000 d0cb c107 5014  ..............P.
	0x0030:  0000 adb4 0000                           ......
17:55:51.728091 IP (tos 0x0, ttl 128, id 3036, offset 0, flags [none], proto TCP (6), length 40)
    10.97.0.2.1723 > 10.97.0.1.57473: Flags [R.], cksum 0xa70e (correct), seq 0, ack 3503014151, win 0, length 0
	0x0000:  000c 29c8 e96e 000c 293e 369e 0800 4500  ..)..n..)>6...E.
	0x0010:  0028 0bdc 0000 8006 19f2 0a61 0002 0a61  .(.........a...a
	0x0020:  0001 06bb e081 0000 0000 d0cb c107 5014  ..............P.
	0x0030:  0000 a70e 0000                           ......
17:55:51.728093 IP (tos 0x0, ttl 128, id 3037, offset 0, flags [DF], proto TCP (6), length 44)
    10.97.0.2.135 > 87.98.64.10.57473: Flags [S.], cksum 0x5e03 (correct), seq 2914528071, ack 3503014151, win 17520, options [mss 1460], length 0
	0x0000:  000c 29c8 e96e 000c 293e 369e 0800 4500  ..)..n..)>6...E.
	0x0010:  002c 0bdd 4000 8006 d9ec 0a61 0002 5762  .,..@......a..Wb
	0x0020:  400a 0087 e081 adb8 2b47 d0cb c107 6012  @.......+G....`.
	0x0030:  4470 5e03 0000 0204 05b4                 Dp^.......
17:55:51.728100 IP (tos 0x0, ttl 64, id 0, offset 0, flags [DF], proto TCP (6), length 40)
    10.97.0.1.57473 > 10.97.0.2.135: Flags [R], cksum 0xad52 (correct), seq 3503014151, win 0, length 0
	0x0000:  000c 293e 369e 000c 29c8 e96e 0800 4500  ..)>6...)..n..E.
	0x0010:  0028 0000 4000 4006 25ce 0a61 0001 0a61  .(..@.@.%..a...a
	0x0020:  0002 e081 0087 d0cb c107 0000 0000 5004  ..............P.
	0x0030:  0000 ad52 0000                           ...R..
17:55:51.728117 IP (tos 0x0, ttl 128, id 3038, offset 0, flags [DF], proto TCP (6), length 44)
    10.97.0.2.1025 > 101.128.0.1.57473: Flags [S.], cksum 0xd860 (correct), seq 2914586949, ack 3503014151, win 17520, options [mss 1460], length 0
	0x0000:  000c 29c8 e96e 000c 293e 369e 0800 4500  ..)..n..)>6...E.
	0x0010:  002c 0bde 4000 8006 d9eb 0a61 0002 6580  .,..@......a..e.
	0x0020:  0001 0401 e081 adb9 1145 d0cb c107 6012  .........E....`.
	0x0030:  4470 d860 0000 0204 05b4                 Dp.`......
17:55:51.728120 IP (tos 0x0, ttl 64, id 0, offset 0, flags [DF], proto TCP (6), length 40)
    10.97.0.1.57473 > 10.97.0.2.1025: Flags [R], cksum 0xa9d8 (correct), seq 3503014151, win 0, length 0
	0x0000:  000c 293e 369e 000c 29c8 e96e 0800 4500  ..)>6...)..n..E.
	0x0010:  0028 0000 4000 4006 25ce 0a61 0001 0a61  .(..@.@.%..a...a
	0x0020:  0002 e081 0401 d0cb c107 0000 0000 5004  ..............P.
	0x0030:  0000 a9d8 0000                           ......
17:55:51.728149 IP (tos 0x0, ttl 42, id 5884, offset 0, flags [none], proto TCP (6), length 44)
    10.97.0.1.57473 > 77.254.155.249.3306: Flags [S], cksum 0xbe0c (correct), seq 3503014150, win 3072, options [mss 1460], length 0
	0x0000:  000c 293e 369e 000c 29c8 e96e 0800 4500  ..)>6...)..n..E.
	0x0010:  002c 16fc 0000 2a06 64ce 0a61 0001 4dfe  .,....*.d..a..M.
	0x0020:  9bf9 e081 0cea d0cb c106 0000 0000 6002  ..............`.
	0x0030:  0c00 be0c 0000 0204 05b4                 ..........
17:55:51.728175 IP (tos 0x0, ttl 48, id 53396, offset 0, flags [none], proto TCP (6), length 44)
    10.97.0.1.57473 > 48.177.164.29.113: Flags [S], cksum 0xfcd7 (correct), seq 3503014150, win 1024, options [mss 1460], length 0
	0x0000:  000c 293e 369e 000c 29c8 e96e 0800 4500  ..)>6...)..n..E.
	0x0010:  002c d094 0000 3006 a535 0a61 0001 30b1  .,....0..5.a..0.
	0x0020:  a41d e081 0071 d0cb c106 0000 0000 6002  .....q........`.
	0x0030:  0400 fcd7 0000 0204 05b4                 ..........
17:55:51.728204 IP (tos 0x0, ttl 128, id 3039, offset 0, flags [none], proto TCP (6), length 40)
    10.97.0.2.3306 > 10.97.0.1.57473: Flags [R.], cksum 0xa0df (correct), seq 0, ack 3503014151, win 0, length 0
	0x0000:  000c 29c8 e96e 000c 293e 369e 0800 4500  ..)..n..)>6...E.
	0x0010:  0028 0bdf 0000 8006 19ef 0a61 0002 0a61  .(.........a...a
	0x0020:  0001 0cea e081 0000 0000 d0cb c107 5014  ..............P.
	0x0030:  0000 a0df 0000                           ......
17:55:51.728213 IP (tos 0x0, ttl 47, id 34199, offset 0, flags [none], proto TCP (6), length 44)
    10.97.0.1.57473 > 239.23.188.65.1720: Flags [S], cksum 0x3d7b (correct), seq 3503014150, win 4096, options [mss 1460], length 0
	0x0000:  000c 293e 369e 000c 29c8 e96e 0800 4500  ..)>6...)..n..E.
	0x0010:  002c 8597 0000 2f06 f132 0a61 0001 ef17  .,..../..2.a....
	0x0020:  bc41 e081 06b8 d0cb c106 0000 0000 6002  .A............`.
	0x0030:  1000 3d7b 0000 0204 05b4                 ..={......
